:020000040000FA
:10000000020708020803FFFFFFFFFF02080BFFFFC4
:10001000FFFFFF020813FFFFFFFFFF02081BFFFFA8
:10002000FFFFFF020823FFFFFFFFFF02082BFFFF78
:10003000FFFFFF020833FFFFFFFFFF02083BFFFF48
:10004000FFFFFF020843FFFFFFFFFF02084BFFFF18
:10005000FFFFFF020853FFFFFFFFFF02085BFFFFE8
:10006000FFFFFF020863FFFFFFFFFF02086BFFFFB8
:10007000FFFFFF020873FFFFFFFFFF02087BFFFF88
:10008000FFFFFF020883FFFFFFFFFF02088B74F7EB
:100090001205C574FC1206CE7508047509007808AF
:1000A0001206F7740212073D7A907B007901120460
:1000B000C07402120686850C82850D83E0F8A3E0E9
:1000C000F9E8496021850C82850D83E0F47003A373
:1000D000E0F460127402120733E0687003A3E06971
:1000E000700479018002790074041206867F02028E
:1000F000062B74F71205C574FF1206CE8002E4F0D9
:100100007C017D00AA0CAB0D79001204158B09EA65
:100110004509700302021E900283E0600C14601B0C
:1001200014604014607F020214850C82850D83E008
:1001300064FE70CC900283740180C4850C82850DAE
:1001400083E0C394FC90028350B47402F090028167
:10015000E4F0900280F0850C82850D83E02403900A
:100160000282F0850C82850D83E0F8900280E068C1
:10017000F0850C82850D83E0C0E0900281E0F87488
:100180008128F582E43401F583D0E0F0900281E02B
:1001900004F0F8900282E06860030201009002839C
:1001A00074030200FFE4F0900280E0F8850C828581
:1001B0000D83E0686003020100900182E0541F6437
:1001C0000D60030201001202257800900181E024F5
:1001D00003F97E006008FFE0C868F8A3DFF97481C6
:1001E00029F582E43401F583E8F0900183E064832B
:1001F0007007A3E07003097E0190018074FEF0E9AE
:100200002402FCE43400FD7A807B0179001204337F
:10021000EEF9800CC2AF75C9AB75C95B80FE790081
:1002200074010200EA74F51205C574FC1206CE9042
:100230000185E0FB900184E0FAFCEBF8E4C8F9ECFE
:1002400028F8F50AE93402F50B7F017E009001835E
:10025000E014600F14603D14607E1470030203808C
:1002600002037EE50B5401F9E84970118808850BFB
:100270000974097808120717A9081205AE75081045
:100280008E0978081206F77C867D01AA0AAB0B124C
:100290000546803C7F43EB900186F0EA900185F0B3
:1002A0007508408E0978081206F77C877D018A0858
:1002B000850B09740278081206E4E50854FCFAE597
:1002C000095407FB7409780A120717A90A1204C017
:1002D00074021206860203807508048E09780812DB
:1002E00006F7740212073D7A907B0079011204C070
:1002F00074021206867402120733E0F8A3E0F9854F
:100300000C82850D83E0687003A3E0696053850C5F
:1003100082850D83E0F8A3E0F97402120733E8F058
:10032000A3E9F0850C82850D8374FFF0A3F08F089C
:1003300078081206F7740212073D7A247B02120530
:1003400046740212068675080478081206F77402CD
:1003500012073D7A907B0079011204C074021206E4
:1003600086850C82850D83E0F8A3E0F974021207FC
:1003700033E0687003A3E06960067E0780027E01B7
:10038000EF900181F0900183E0D2E7F0EEA3F074EA
:10039000041206867F0402062B74F81205C57E003F
:1003A00075868075C48053F1FE43F30C53FF3F857F
:1003B000FFFF75C2D875C50B75C4027586C0803C39
:1003C000E586A2E150295386FD90028CE0F8900268
:1003D0008EE028FAA3E034008A82F583E0F5C1902C
:1003E000028CE004F00890028DE0687002E4F0E511
:1003F00086A2E250071200F2E9CE4EFE90028DE096
:1004000070BEEE60EAE586A2E040E4C2AF75C9AB1B
:1004100075C95B80FEC082C083E586A2E2500BE511
:10042000C18A828B83F07A0180027A007B00D083BC
:10043000D08222C082C08390028EEAF0A3EBF0EC5F
:1004400090028DF090028C7401F05386FD8A828BAD
:1004500083E0F5C1ECFAEDFB80D453BEFBE59DA231
:10046000E650FAE5C654804449F5C6E59E547F64DB
:100470004970F853C67FE59EA2E740FA53C680E56F
:100480009E547F70FA43BE049062707408F0740248
:10049000F5D57484F5D412008EE96401700D02085C
:1004A00000C2AF75C9AB75C95B80FE794E1206A15B
:1004B000E960F8120399C2AF75C9AB75C95B80FEDC
:1004C00074F51205C58908740F5508F50A750B00F7
:1004D000740B780A1206E4EA2400F8EB3480F9E899
:1004E0002400E9350BF985C70AA2AFE433F509C248
:1004F000AFE508C4540FFAE5C754F84AF5C7740BC2
:10050000120733E0FEA3E0FFEE4F602CEEFAEFFBA4
:1005100088828983E08C828D83F088828983A3A876
:1005200082A9838C828D83A3AC82AD83EA24FF1AD7
:10053000EB34FFFBEA4B70D8850AC7E509A2E092CD
:10054000AF7F0402062B74F71205C5ECFEED900296
:1005500084F0EEA3F0A37462F0A37473F0A3E054EC
:100560001FF07409120733E0F508A3E0F509E50868
:10057000333354FC900289F074067808120717E5AB
:1005800008900288F090028A7412F0A37442F07509
:10059000D11E75D601EA906271F0EBA3F090627003
:1005A000E0D2E1F0E0A2E740FB7F0202062BC0822E
:1005B000C083E9C333906272F0906270E0D2E0F0E1
:1005C000D083D08222250CC582C0E0E50D34FFC562
:1005D00083C0E0E50CC3958224F910AF0885830D34
:1005E00085820C800885830D85820CD2AFCEF0A366
:1005F000E520F0A37808E608F0A3DEFAEFF0A3E523
:100600008124FBF8E608F0A3E608F0A30808E60852
:10061000F0A3E608F0A315811581D0E0FED0E0F844
:1006200015811581E8C0E0EEC0E022850D83850CC0
:1006300082E0A3FEE0A3F5207808E0A3F608DFFA45
:10064000E0A3FFE0A3C0E0E0A3C0E0E0A3C0E0E0DF
:10065000A3C0E010AF0885820C85830D80088582D9
:100660000C85830DD2AFD083D08222250CF5821069
:10067000AF08F50C400C150D8008F50C4002150D67
:10068000D2AF850D832200C0D0250C10AF08F50C29
:10069000500C050D8008F50C5002050DD2AFD0D0DE
:1006A00022E9F875B60FE5B4A2E750FAE8C395BBA6
:1006B0005003790122790022E490018078117902B7
:1006C0008002F0A3D8FCD9FA12045A120745250C6F
:1006D00010AF08F50C400C150D8008F50C40021504
:1006E0000DD2AF22700422600D18C6C333C608C6EF
:1006F00033C6D5E0F4182274028000C0E0F404127E
:10070000066BD0E01207262275D00075813F750C6C
:1007100080750D010206B8600C08C6C313C618C662
:1007200013C6D5E0F422CAC0E0E6F0A308DAFAD096
:10073000E0FA22250CF582E4350DF58322250CFC28
:10074000E4350DFD2200000080FBFFFFFFFFFFFFEF
:10075000FFFFFFFFFFFFFFFFFFFFFFFFFFFFFFFFA9
:10076000FFFFFFFFFFFFFFFFFFFFFFFFFFFFFFFF99
:10077000FFFFFFFFFFFFFFFFFFFFFFFFFFFFFFFF89
:10078000FFFFFFFFFFFFFFFFFFFFFFFFFFFFFFFF79
:10079000FFFFFFFFFFFFFFFFFFFFFFFFFFFFFFFF69
:1007A000FFFFFFFFFFFFFFFFFFFFFFFFFFFFFFFF59
:1007B000FFFFFFFFFFFFFFFFFFFFFFFFFFFFFFFF49
:1007C000FFFFFFFFFFFFFFFFFFFFFFFFFFFFFFFF39
:1007D000FFFFFFFFFFFFFFFFFFFFFFFFFFFFFFFF29
:1007E000FFFFFFFFFFFFFFFFFFFFFFFFFFFFFFFF19
:1007F000FFFFFFFFFFFFFFFFFFFFFFFFFFFFFFFF09
:0400000500000708E8
:00000001FF
