:020000040000FA
:1000000002079E020803FFFFFFFFFF02080BFFFF2E
:10001000FFFFFF020813FFFFFFFFFF02081BFFFFA8
:10002000FFFFFF020823FFFFFFFFFF02082BFFFF78
:10003000FFFFFF020833FFFFFFFFFF02083BFFFF48
:10004000FFFFFF020843FFFFFFFFFF02084BFFFF18
:10005000FFFFFF020853FFFFFFFFFF02085BFFFFE8
:10006000FFFFFF020863FFFFFFFFFF02086BFFFFB8
:10007000FFFFFF020873FFFFFFFFFF02087BFFFF88
:10008000FFFFFF020883FFFFFFFFFF02088B74F7EB
:1000900012064874FC1207517508047509007808A7
:1000A00012078D74021207D37A907B007901120532
:1000B000437402120709851082851183E0F8A3E0DA
:1000C000F9E8496021851082851183E0F47003A36B
:1000D000E0F4601274021207C9E0687003A3E069DB
:1000E000700479018002790074041207097F02020A
:1000F00006AE74F712064874FF1207518002E4F04E
:100100007C017D00AA10AB1179001203BB8B09EAB8
:1001100045097003020221639004900283E0600CA1
:1001200014601B14604014607F02021785108285E2
:100130001183E064FE70C9900283740180C1851050
:1001400082851183E0C394FC90028350B17402F065
:10015000900281E4F0900280F0851082851183E0A6
:100160002403900282F0851082851183E0F89002CA
:1001700080E068F0851082851183E0C0E090028104
:10018000E0F8748128F582E43401F583D0E0F09042
:100190000281E004F0F8900282E06860030201004E
:1001A00090028374030200FFE4F0900280E0F8857F
:1001B0001082851183E0686003020100900182E0F3
:1001C000541F640D600302010012022878009001A0
:1001D00081E02403F97E006008FFE0C868F8A3DF2F
:1001E000F9748129F582E43401F583E8F090018304
:1001F000E064837007A3E07003097E0190018074BE
:10020000FEF0E92402FCE43400FD7A807B017900F1
:100210001203D7EEF9800CC2AF75C9AB75C95B800C
:10022000FE790074010200EA74F512064874FC12AB
:100230000751900185E0FB900184E0FAFCEBF8E4C3
:10024000C8F9EC28F8F50AE93402F50B7F017E00C5
:10025000900183E014600F14603D14607E147003FD
:10026000020383020381E50B5401F9E84970118808
:1002700008850B09740978081207ADA90812063120
:100280007508108E09780812078D7C867D01AA0AF0
:10029000AB0B1205C9803C7F43EB900186F0EA90DE
:1002A0000185F07508408E09780812078D7C877DDE
:1002B000018A08850B0974027808120767E508545B
:1002C000FCFAE5095407FB7409780A1207ADA90A7C
:1002D00012054374021207090203837508048E098C
:1002E000780812078D74021207D37A907B00790187
:1002F000120543740212070974021207C9E0F8A339
:10030000E0F9851082851183E0687003A3E06960DD
:1003100053851082851183E0F8A3E0F97402120777
:10032000C9E8F0A3E9F085108285118374FFF0A37A
:10033000F08F08780812078D74021207D37A247B95
:10034000021205C974021207097508047808120719
:100350008D74021207D37A907B00790112054374E1
:1003600002120709851082851183E0F8A3E0F97471
:10037000021207C9E0687003A3E06960067E078087
:10038000027E01EF900181F0900183E0D2E7F0EE70
:10039000A3F074041207097F040206AE75F8807595
:1003A000FB8043F10243F4C053FF3F43FF4075FA23
:1003B000D875FC0B75FB0275F8C022C082C083A201
:1003C000FA500BE5F98A828B83F07A0180027A0079
:1003D0007B00D083D08222C082C08390028EEAF05C
:1003E000A3EBF0EC90028DF090028C7401F0C2F956
:1003F0008A828B83E0F5F9ECFAEDFB80D553BEFBE6
:10040000E59DA2E650FAE5C654804449F5C6E59E4E
:10041000547F644970F843C680E59EA2E750FA53C2
:10042000C680E59E547F70FA43BE049062707408E3
:10043000F053F4FB43FE047402F5D57484F5D4C282
:100440009212008EE96401705DD292E59DA2E440B3
:100450004612039C750800750900750A10750B009B
:10046000A2FA401F750CFF750DFF750EFF750FFF8B
:100470007808790C12077AE5084509450A450B60AA
:100480001680DDE5F9601F24FC601B24BB60172487
:10049000FC6013244F600FC292020800C2AF75C9FE
:1004A000AB75C95B80FE794E120724E960F87E07C0
:1004B0006390047AFF7BFF120511DEF47E001203C5
:1004C0009C8037A2F95028C2F990028CE0F8900283
:1004D0008EE028FAA3E034008A82F583E0F5F990F3
:1004E000028CE004F00890028DE0687002E4F0A253
:1004F000FA50071200F2E9CE4EFE90028DE070C372
:10050000EE60ECA2F840E8C2AF75C9AB75C95B807C
:10051000FEEBC313FBEA13FAEAF8EBF9E824FFFA5F
:10052000E934FFFBE849601A000000000000000009
:1005300000000000000000000000000000000000BB
:1005400080D62274F51206488908740F5508F50AFA
:10055000750B00740B780A120767EA2400F8EB3475
:1005600080F9E82400E9350BF985C70AA2AFE43326
:10057000F509C2AFE508C4540FFAE5C754F84AF5C7
:10058000C7740B1207C9E0FEA3E0FFEE4F602CEE2C
:10059000FAEFFB88828983E08C828D83F0888289E0
:1005A00083A3A882A9838C828D83A3AC82AD83EAC6
:1005B00024FF1AEB34FFFBEA4B70D8850AC7E50924
:1005C000A2E092AF7F040206AE74F7120648ECFE7A
:1005D000ED900284F0EEA3F0A37462F0A37473F0C4
:1005E000A3E0541FF074091207C9E0F508A3E0F571
:1005F00009E508333354FC900289F0740678081238
:1006000007ADE508900288F090028A7412F0A37496
:1006100042F075D11E75D601EA906271F0EBA3F03D
:10062000906270E0D2E1F0E0A2E740FB7F020206B8
:10063000AEC082C083E9C333906272F0906270E012
:10064000D2E0F0D083D082222510C582C0E0E5112F
:1006500034FFC583C0E0E510C3958224F910AF08CC
:100660008583118582108008858311858210D2AF21
:10067000CEF0A3E520F0A37808E608F0A3DEFAEFB9
:10068000F0A3E58124FBF8E608F0A3E608F0A30850
:1006900008E608F0A3E608F0A315811581D0E0FE76
:1006A000D0E0F815811581E8C0E0EEC0E0228511A8
:1006B00083851082E0A3FEE0A3F5207808E0A3F68E
:1006C00008DFFAE0A3FFE0A3C0E0E0A3C0E0E0A3FE
:1006D000C0E0E0A3C0E010AF0885821085831180E0
:1006E00008858210858311D2AFD083D08222251055
:1006F000F58210AF08F510400C15118008F5104078
:10070000021511D2AF8511832200C0D0251010AF81
:1007100008F510500C05118008F51050020511D293
:10072000AFD0D022E9F875B60FE5B4A2E750FAE8E9
:10073000C395BB5003790122790022E490018078AF
:100740001179028002F0A3D8FCD9FA1203FD120736
:10075000DB251010AF08F510400C15118008F510BE
:1007600040021511D2AF22700422600D18C6C333A7
:10077000C608C633C6D5E0F41822E627F60809E60F
:1007800037F60809E637F60809E637F622740280DC
:1007900000C0E0F4041206EED0E01207BC2275D0CF
:1007A0000075813F75108075110102073B600C08D0
:1007B000C6C313C618C613C6D5E0F422CAC0E0E605
:1007C000F0A308DAFAD0E0FA222510F582E4351118
:1007D000F583222510FCE43511FD2200000080FB8A
:1007E000FFFFFFFFFFFFFFFFFFFFFFFFFFFFFFFF19
:1007F000FFFFFFFFFFFFFFFFFFFFFFFFFFFFFFFF09
:040000050000079E52
:00000001FF
